:100000000C9461000C9473000C9473000C947300B6
:100010000C9473000C9473000C9473000C94730094
:100020000C9473000C9473000C9473000C94730084
:100030000C9473000C9473000C9473000C94730074
:100040000C944A010C9473000C9473000C9473008C
:100050000C9473000C9473000C9473000C94730054
:100060000C9473000C94730000000000240027001F
:100070002A0000000000250028002B0000000000DE
:1000800023002600290004040404040404040202DA
:100090000202020203030303030301020408102007
:1000A0004080010204081020010204081020000012
:1000B0000008000201000003040700000000000027
:1000C000000011241FBECFEFD8E0DEBFCDBF21E07E
:1000D000A0E0B1E001C01D92AC30B207E1F70E9490
:1000E00094010C949D020C940000833081F028F45C
:1000F000813099F08230A1F008958730A9F08830DE
:10010000B9F08430D1F4809180008F7D03C080915C
:1001100080008F7780938000089584B58F7702C028
:1001200084B58F7D84BD08958091B0008F7703C022
:100130008091B0008F7D8093B0000895CF93DF93BE
:10014000282F30E0F901E255FF4F8491F901E6567E
:10015000FF4FD491F901EA57FF4FC491CC2391F09E
:1001600081110E947500EC2FF0E0EE0FFF1FE458A4
:10017000FF4FA591B491EC91ED2381E090E021F443
:1001800080E002C080E090E0DF91CF9108951F935E
:10019000CF93DF93282F30E0F901E255FF4F849190
:1001A000F901E656FF4FD491F901EA57FF4FC49188
:1001B000CC23C1F0162F81110E947500EC2FF0E0C6
:1001C000EE0FFF1FEE58FF4FA591B4919FB7F89423
:1001D000111104C08C91D095D82302C0EC91DE2B74
:1001E000DC939FBFDF91CF911F910895CF93DF9351
:1001F00090E0FC01E656FF4F2491FC01EA57FF4FC7
:100200008491882361F190E0880F991FFC01E859DF
:10021000FF4FC591D491FC01EE58FF4FA591B491C9
:10022000611109C09FB7F894888120958223888343
:10023000EC912E230BC0623061F49FB7F894888153
:10024000322F309583238883EC912E2B2C939FBFE4
:1002500006C08FB7F894E8812E2B28838FBFDF91DB
:10026000CF9108959091C00095FFFCCF9091C1006F
:100270009E7F9093C1008093C60008959091C00026
:1002800095FFFCCF9091C10091609093C100809345
:10029000C60008951F920F920FB60F9211242F934C
:1002A0003F938F939F93AF93BF9380910801909159
:1002B0000901A0910A01B0910B013091070123E0DF
:1002C000230F2D3720F40196A11DB11D05C026E88E
:1002D000230F0296A11DB11D2093070180930801F1
:1002E00090930901A0930A01B0930B01809103013F
:1002F00090910401A0910501B09106010196A11D04
:10030000B11D8093030190930401A0930501B09364
:100310000601BF91AF919F918F913F912F910F90C7
:100320000FBE0F901F901895789484B5826084BD9D
:1003300084B5816084BD85B5826085BD85B58160E9
:1003400085BD80916E00816080936E001092810067
:100350008091810082608093810080918100816022
:1003600080938100809180008160809380008091E3
:10037000B10084608093B1008091B000816080936F
:10038000B00080917A00846080937A0080917A0036
:10039000826080937A0080917A00816080937A00F5
:1003A00080917A00806880937A001092C10062E0A8
:1003B0008BE00E94F60062E08AE00E94F60062E0B4
:1003C00089E00E94F60062E088E00E94F60062E0A8
:1003D00087E00E94F60062E086E00E94F60061E09D
:1003E00082E00E94F60061E08DE00E94F60084E069
:1003F0008093C1008091C2008E608093C200809182
:10040000C20087728093C20087E68093C400109276
:10041000C50088E00E949E00182F89E00E949E007F
:10042000C82F8AE00E949E00D82F8BE00E949E0079
:10043000880FD80FDD0FCD0FCC0FC10FC093000177
:10044000CF3081F461E082E00E94C70081E090E05B
:1004500090930201809301018091C1008860809394
:10046000C1000AC08091C10080618093C100809169
:10047000C00081608093C0008091C2008F73809320
:10048000C200C0E0D0E0809101019091020101978B
:1004900039F587E00E949E00892B71F48DE00E945F
:1004A0003E018DE00E94320187E00E949E00892B70
:1004B000D9F381E00E94320186E00E949E00892BE0
:1004C000B1F58EE00E943E018DE00E94320186E08F
:1004D0000E949E00892BD9F381E00E94320127C03F
:1004E0008091C00087FFFCCF9091C1008091C60031
:1004F00091FF08C090910001891314C08091C00041
:100500008E7F13C09091C00090FD11C0882379F0B8
:100510008D3021F461E00E94C70009C060E08DE0E9
:100520000E94C7008091C00081608093C000209726
:0E05300009F4A9CF0E940000A6CFF894FFCFD7
:00000001FF
