:100000000C9462000C948A000C948A000C948A0070
:100010000C948A000C948A000C948A000C948A0038
:100020000C948A000C948A000C948A000C948A0028
:100030000C948A000C948A000C948A000C948A0018
:100040000C94C6030C948A000C9436040C9410048F
:100050000C948A000C948A000C948A000C948A00F8
:100060000C948A000C948A000000000023002600F3
:10007000290000000000240027002A0000000000E2
:10008000250028002B0004040404040404040202D4
:100090000202020203030303030301020408102007
:1000A0004080010204081020010204081020000012
:1000B0000008000201000003040700000000000027
:1000C0000000D40611241FBECFEFD8E0DEBFCDBFA5
:1000D00011E0A0E0B1E0E0E6FEE002C005900D9284
:1000E000A43CB107D9F722E0A4ECB1E001C01D9215
:1000F000AC36B207E1F710E0C2E6D0E004C02197C9
:10010000FE010E942307C136D107C9F70E94680487
:100110000C942E070C940000833081F028F4813079
:1001200099F08230A1F008958730A9F08830B9F0B5
:100130008430D1F4809180008F7D03C08091800055
:100140008F7780938000089584B58F7702C084B53F
:100150008F7D84BD08958091B0008F7703C080911A
:10016000B0008F7D8093B00008951F93CF93DF93ED
:10017000282F30E0F901E255FF4F8491F901E6564E
:10018000FF4FD491F901EA57FF4FC491CC23C1F03E
:10019000162F81110E948C00EC2FF0E0EE0FFF1F54
:1001A000E458FF4FA591B4919FB7F894111104C082
:1001B0008C91D095D82302C0EC91DE2BDC939FBFAD
:1001C000DF91CF911F910895CF93DF9390E0FC01D1
:1001D000E656FF4F2491FC01EA57FF4F8491882394
:1001E00061F190E0880F991FFC01EE58FF4FC59117
:1001F000D491FC01E458FF4FA591B491611109C05D
:100200009FB7F8948881209582238883EC912E23D0
:100210000BC0623061F49FB7F8948881322F30951B
:1002200083238883EC912E2B2C939FBF06C08FB71E
:10023000F894E8812E2B28838FBFDF91CF9108950A
:100240003FB7F8948091CB019091CC01A091CD0162
:10025000B091CE0126B5A89B05C02F3F19F001969D
:10026000A11DB11D3FBFBA2FA92F982F8827820F3C
:10027000911DA11DB11DBC01CD0142E0660F771F8C
:10028000881F991F4A95D1F708958F929F92AF9238
:10029000BF92CF92DF92EF92FF920E9420014B011A
:1002A0005C0182E0C82ED12CE12CF12C0E942001AF
:1002B000DC01CB0188199909AA09BB09883E934042
:1002C000A105B10598F321E0C21AD108E108F108AF
:1002D00088EE880E83E0981EA11CB11CC114D104C5
:1002E000E104F10419F7FF90EF90DF90CF90BF90F9
:1002F000AF909F908F900895CF92DF92EF92FF92F0
:100300000F931F93CF93DF936C017A018B01C0E0B1
:10031000D0E0CE15DF0581F0D8016D918D01D601B9
:10032000ED91FC910190F081E02DC6010995892B9A
:1003300011F02196EECF7E01C701DF91CF911F9181
:100340000F91FF90EF90DF90CF900895089580E097
:1003500090E00895FC01538D448D252F30E0842FCB
:1003600090E0821B930B541710F0CF9608950197DD
:100370000895FC01918D828D981761F0828DDF01C7
:10038000A80FB11D5D968C91928D9F5F9F73928F88
:1003900090E008958FEF9FEF0895FC01918D828D7D
:1003A000981731F0828DE80FF11D858D90E008954A
:1003B0008FEF9FEF0895FC01918D228D892F90E0A2
:1003C000805C9F4F821B91098F73992708958FEC52
:1003D00091E00E94DB0121E0892B09F420E0822FCB
:1003E0000895FC01848DDF01A80FB11DA35ABF4FF2
:1003F0002C91848D90E001968F739927848FA68924
:10040000B7892C93A089B1898C91837080648C9377
:10041000938D848D981306C00288F389E02D808126
:100420008F7D80830895EF92FF920F931F93CF9358
:10043000DF93EC0181E0888F9B8D8C8D981305C034
:10044000E889F989808185FD26C0F62E0B8D10E0A4
:100450000F5F1F4F0F731127E02E8C8DE8120CC019
:100460000FB607FCFACFE889F989808185FFF5CFBF
:10047000CE010E94F101F1CF8B8DFE01E80FF11D3D
:10048000E35AFF4FF0829FB7F8940B8FEA89FB89FC
:10049000808180620AC09FB7F894EE89FF896083EB
:1004A000E889F98980818370806480839FBF81E0BF
:1004B00090E0DF91CF911F910F91FF90EF90089501
:1004C000CF93DF93EC01888D8823C9F0EA89FB89FB
:1004D000808185FD05C0A889B9898C9186FD0FC0F2
:1004E0000FB607FCF5CF808185FFF2CFA889B989C7
:1004F0008C9185FFEDCFCE010E94F101E7CFDF9116
:10050000CF91089580E090E0892B29F00E94E701C7
:1005100081110C94000008958130910591F024F42C
:10052000892B01F560E008C08230910521F0039726
:10053000C9F461E007C061E088E00E94B50060E0B6
:1005400005C060E088E00E94B50061E08BE00E9499
:10055000B50061E089E00E94B5000E94450160E0BD
:1005600089E006C060E088E00E94B50060E08BE0B2
:100570000C94B50080E090E00E948C0282E090E054
:100580000E948C0280E090E00E948C0280E090E06B
:100590000C948C0280E090E00E948C0282E090E05B
:1005A0000E948C0282E090E00E948C0280E090E049
:1005B0000E948C0280E090E00C948C024F925F923B
:1005C0006F927F928F929F92AF92BF92CF92DF9263
:1005D000EF92FF920F931F93CF93DF931092C50179
:1005E0001092C401812C912C54018C0101501109ED
:1005F00098EB692E90E0792E24EAE22E20E0F22E8C
:1006000030E9C32E30E0D32EC091C401D091C50192
:10061000C017D1070CF038C080E090E00E948C0237
:10062000F3018491F7015490F60144904420A1F025
:1006300081110E948C00E42DF0E0EE0FFF1FE859BD
:10064000FF4FA591B4918C91582231E020E009F43C
:1006500030E0832F922F02C080E090E0092E000C42
:10066000AA0BBB0B0C2E04C0880F991FAA1FBB1F1F
:100670000A94D2F7882A992AAA2ABB2A2196D093CB
:10068000C501C093C401C0CF82E090E00E948C02FB
:1006900082E090E00E948C0280E090E00E948C0258
:1006A000C501B401DF91CF911F910F91FF90EF90A1
:1006B000DF90CF90BF90AF909F908F907F906F9082
:1006C0005F904F900895009769F0FC010190002021
:1006D000E9F73197AF01481B590BBC018FEC91E052
:1006E0000C947C0180E090E00895CF93DF930E940A
:1006F0006303EC0182E191E00E9463038C0F9D1F74
:10070000DF91CF9108958F929F92AF92BF920F93F6
:100710001F93CF93DF93CDB7DEB7A1970FB6F894B1
:10072000DEBF0FBECDBF19A2423008F44AE08E01F1
:100730000F5D1F4F842E912CA12CB12CA50194018B
:100740000E940107E62FB901CA0101501109EA30E0
:1007500014F4E05D01C0E95CD801EC93232B242B59
:10076000252B61F7C8010E946303A1960FB6F89488
:10077000DEBF0FBECDBFDF91CF911F910F91BF9014
:10078000AF909F908F9008950E9429071F920F921B
:100790000FB60F9211242F933F938F939F93AF9394
:1007A000BF938091C7019091C801A091C901B091F8
:1007B000CA013091C60123E0230F2D3720F40196A2
:1007C000A11DB11D05C026E8230F0296A11DB11D74
:1007D0002093C6018093C7019093C801A093C901DB
:1007E000B093CA018091CB019091CC01A091CD0131
:1007F000B091CE010196A11DB11D8093CB019093C4
:10080000CC01A093CD01B093CE01BF91AF919F9148
:100810008F913F912F910F900FBE0F901F901895C1
:100820001F920F920FB60F9211242F933F934F9365
:100830005F936F937F938F939F93AF93BF93EF9348
:10084000FF938FEC91E00E94F101FF91EF91BF9136
:10085000AF919F918F917F916F915F914F913F9158
:100860002F910F900FBE0F901F9018951F920F920F
:100870000FB60F9211242F938F939F93EF93FF93B3
:10088000E091DF01F091E0018081E091E501F091DC
:10089000E60182FD12C090818091E8018F5F8F7325
:1008A0002091E901821751F0E091E801F0E0E15375
:1008B000FE4F958F8093E80101C08081FF91EF91F9
:1008C0009F918F912F910F900FBE0F901F901895B1
:1008D000789484B5826084BD84B5816084BD85B51B
:1008E000826085BD85B5816085BD80916E00816027
:1008F00080936E00109281008091810082608093CD
:1009000081008091810081608093810080918000CE
:100910008160809380008091B10084608093B100F9
:100920008091B00081608093B00080917A008460F3
:1009300080937A0080917A00826080937A0080911F
:100940007A00816080937A0080917A008068809339
:100950007A001092C10061E088E00E94E40060E04B
:100960008AE00E94E40061E08BE00E94E40061E024
:1009700089E00E94E400E091DF01F091E00182E073
:100980008083E091DB01F091DC011082E091DD01D8
:10099000F091DE018FEC80831092E701E091E3019A
:1009A000F091E40186E08083E091E101F091E201C1
:1009B000808180618083E091E101F091E20180819A
:1009C00088608083E091E101F091E201808180689C
:1009D0008083E091E101F091E20180818F7D80834D
:1009E0001092C5011092C401E090C401F090C501BD
:1009F00085E0E816F10464F482E090E00E948C0245
:100A00008FEFE81AF80AF092C501E092C401ECCF2A
:100A100085E191E00E9475038AE291E00E947503EE
:100A20008CE391E00E9475038FE491E00E947503CE
:100A300087E691E00E94750388E791E00E947503C4
:100A40008FEC91E00E94DB01181619060CF0A9C189
:100A50008FEC91E00E94B901813309F4C3C024F501
:100A6000803309F09EC10E94CA0280E090E00E949B
:100A70008C0281E090E00E948C0281E090E00E9474
:100A80008C0280E090E00E948C0282E090E00E9464
:100A90008C0282E090E00E948C020E94BA021092C6
:100AA000C5011092C4011DC1823609F44DC08436BF
:100AB00009F077C10E94CA0281E090E00E948C0296
:100AC00080E090E00E948C0280E090E00E948C0226
:100AD00080E090E00E948C0282E090E00E948C0214
:100AE00082E090E00E948C0280E090E00E948C0204
:100AF00082E090E00E948C0280E090E00E948C02F4
:100B000080E290E00E94DE026B017C018AE891E0C5
:100B10000E94750342E063E570EA80E990E50E9477
:100B2000830382E191E00E94630386E991E00E94E1
:100B3000750342E0C701B6010E94830382E191E0A0
:100B40000E94630340E145C086EA91E00E9475037C
:100B50000E94CA0280E090E00E948C0281E090E056
:100B60000E948C0280E090E00E948C0280E090E085
:100B70000E948C0282E090E00E948C0282E090E071
:100B80000E948C020E94BA0280E090E00E948C02D7
:100B900080E090E00E948C0280E090E00E948C0255
:100BA00081E090E00E94DE026B01770FEE08FF0803
:100BB000F7FE0EC06DE28FEC91E00E9413026627F3
:100BC0007727CB016C197D098E099F094AE003C084
:100BD0004AE0C701B6010E94830382E191E00E94CE
:100BE0006303DFC00E94CA0280E090E00E948C0292
:100BF00081E090E00E948C0281E090E00E948C02F3
:100C000080E090E00E948C0282E090E00E948C02E2
:100C100082E090E00E948C020E94BA021092C5010C
:100C20001092C401E090C401F090C50183E1E81680
:100C3000F10464F480E090E00E948C028FEFE81AE7
:100C4000F80AF092C501E092C401ECCF81E090E097
:100C50000E948C0281E090E00E948C021092C501FB
:100C60001092C401E090C401F090C5018CE6E81632
:100C7000F10464F480E090E00E948C028FEFE81AA7
:100C8000F80AF092C501E092C401ECCF81E090E057
:100C90000E948C021092C5011092C401E090C40120
:100CA000F090C50181E1E816F10464F480E090E081
:100CB0000E948C028FEFE81AF80AF092C501E092C8
:100CC000C401ECCF82E090E00E948C0282E090E0D0
:100CD0000E948C0280E090E00E948C0285EB91E003
:100CE0005EC0E090C401F090C50183E1E816F10414
:100CF00064F480E090E00E948C028FEFE81AF80A1A
:100D0000F092C501E092C401ECCF80E090E00E9437
:100D10008C0281E090E00E948C021092C50110923A
:100D2000C401E090C401F090C5018CE6E816F1041E
:100D300064F480E090E00E948C028FEFE81AF80AD9
:100D4000F092C501E092C401ECCF81E090E00E94F6
:100D50008C021092C5011092C401E090C401F09081
:100D6000C50181E1E816F10464F480E090E00E949E
:100D70008C028FEFE81AF80AF092C501E092C401E4
:100D8000ECCF82E090E00E948C0282E090E00E9432
:100D90008C0280E090E00E948C028CEB91E00E943B
:100DA00075030E9482024CCEEFECF1E013821282B6
:100DB00088EE93E0A0E0B0E084839583A683B783B8
:100DC00084E091E09183808385EC90E0958784872F
:100DD00084EC90E09787868780EC90E0918B808B05
:100DE00081EC90E0938B828B82EC90E0958B848BEE
:100DF00086EC90E0978B868B118E128E138E148E5C
:100E00000895A1E21A2EAA1BBB1BFD010DC0AA1F4B
:100E1000BB1FEE1FFF1FA217B307E407F50720F063
:100E2000A21BB30BE40BF50B661F771F881F991FDE
:100E30001A9469F760957095809590959B01AC0127
:100E4000BD01CF010895EE0FFF1F0590F491E02D35
:100E5000099481E090E0F8940C942E07F894FFCF69
:100E60000000000013027C01AA016002DB01B9014D
:100E7000CD010D0A002D2D2D2D53454C45205072CE
:100E80006F6A6563742D2D2D2D0063686F6F736518
:100E9000206120636F6D6D616E643A0064202D3EA9
:100EA000207072696E7420696420636F64650062EB
:100EB000202D3E207072696E7420627574746F6E9E
:100EC0002073746174650031202D3E207475726E3C
:100ED000206F6E206C65640030202D3E207475728A
:100EE0006E206F6666206C6564007375706F736545
:100EF00020746F3A200061637475616C20726573B1
:100F0000756C743A2000627574746F6E207374612E
:100F100074653A20004C4544204F4E004C45442017
:040F20004F464600F2
:00000001FF
