:100000000C9462000C948A000C948A000C948A0070
:100010000C948A000C948A000C948A000C948A0038
:100020000C948A000C948A000C948A000C948A0028
:100030000C948A000C948A000C948A000C948A0018
:100040000C9402040C948A000C9472040C944C04DA
:100050000C948A000C948A000C948A000C948A00F8
:100060000C948A000C948A000000000024002700F1
:100070002A0000000000250028002B0000000000DE
:1000800023002600290004040404040404040202DA
:100090000202020203030303030301020408102007
:1000A0004080010204081020010204081020000012
:1000B0000008000201000003040700000000000027
:1000C00000000F0711241FBECFEFD8E0DEBFCDBF69
:1000D00011E0A0E0B1E0E6EDFEE002C005900D9277
:1000E000A83AB107D9F722E0A8EAB1E001C01D9211
:1000F000A035B207E1F710E0C2E6D0E004C02197D6
:10010000FE010E945E07C136D107C9F70E94A40410
:100110000C9469070C940000833081F028F481303E
:1001200099F08230A1F008958730A9F08830B9F0B5
:100130008430D1F4809180008F7D03C08091800055
:100140008F7780938000089584B58F7702C084B53F
:100150008F7D84BD08958091B0008F7703C080911A
:10016000B0008F7D8093B0000895CF93DF93E8EBCC
:10017000F0E08491E4EAF0E0D491E0E9F0E0C491A9
:10018000CC2391F081110E948C00EC2FF0E0EE0F57
:10019000FF1FE458FF4FA591B491EC91ED2381E04E
:1001A00090E021F480E002C080E090E0DF91CF9108
:1001B00008951F93CF93DF93282F30E0F901E25584
:1001C000FF4F8491F901E656FF4FD491F901EA57A8
:1001D000FF4FC491CC23C1F0162F81110E948C00D7
:1001E000EC2FF0E0EE0FFF1FEE58FF4FA591B491FA
:1001F0009FB7F894111104C08C91D095D82302C0F8
:10020000EC91DE2BDC939FBFDF91CF911F9108957E
:10021000CF93DF9390E0FC01E656FF4F2491FC0161
:10022000EA57FF4F8491882361F190E0880F991F6E
:10023000FC01E859FF4FC591D491FC01EE58FF4FE6
:10024000A591B491611109C09FB7F8948881209558
:1002500082238883EC912E230BC0623061F49FB718
:10026000F8948881322F309583238883EC912E2B4C
:100270002C939FBF06C08FB7F894E8812E2B28835C
:100280008FBFDF91CF9108953FB7F8948091AF0170
:100290009091B001A091B101B091B20126B5A89B97
:1002A00005C02F3F19F00196A11DB11D3FBFBA2F08
:1002B000A92F982F8827820F911DA11DB11DBC0168
:1002C000CD0142E0660F771F881F991F4A95D1F72D
:1002D00008958F929F92AF92BF92CF92DF92EF924A
:1002E000FF920E9444014B015C0182E0C82ED12C98
:1002F000E12CF12C0E944401DC01CB018819990901
:10030000AA09BB09883E9340A105B10598F321E0F5
:10031000C21AD108E108F10888EE880E83E0981E21
:10032000A11CB11CC114D104E104F10419F7FF9020
:10033000EF90DF90CF90BF90AF909F908F900895F7
:10034000CF92DF92EF92FF920F931F93CF93DF93A1
:100350006C017A018B01C0E0D0E0CE15DF0581F0A1
:10036000D8016D918D01D601ED91FC910190F08144
:10037000E02DC6010995892B11F02196EECF7E0163
:10038000C701DF91CF911F910F91FF90EF90DF9008
:10039000CF900895089580E090E00895FC01538D7A
:1003A000448D252F30E0842F90E0821B930B54174F
:1003B00010F0CF96089501970895FC01918D828DDC
:1003C000981761F0828DDF01A80FB11D5D968C91A9
:1003D000928D9F5F9F73928F90E008958FEF9FEFB4
:1003E0000895FC01918D828D981731F0828DE80F70
:1003F000F11D858D90E008958FEF9FEF0895FC012A
:10040000918D228D892F90E0805C9F4F821B9109F6
:100410008F739927089583EB91E00E94FF0121E0FB
:10042000892B09F420E0822F0895FC01848DDF01DF
:10043000A80FB11DA35ABF4F2C91848D90E0019657
:100440008F739927848FA689B7892C93A089B18946
:100450008C91837080648C93938D848D981306C0E7
:100460000288F389E02D80818F7D80830895EF924B
:10047000FF920F931F93CF93DF93EC0181E0888F5E
:100480009B8D8C8D981305C0E889F989808185FD45
:1004900026C0F62E0B8D10E00F5F1F4F0F73112734
:1004A000E02E8C8DE8120CC00FB607FCFACFE8895D
:1004B000F989808185FFF5CFCE010E941502F1CF29
:1004C0008B8DFE01E80FF11DE35AFF4FF0829FB7BD
:1004D000F8940B8FEA89FB89808180620AC09FB7FC
:1004E000F894EE89FF896083E889F98980818370B7
:1004F000806480839FBF81E090E0DF91CF911F9166
:100500000F91FF90EF900895CF93DF93EC01888DCA
:100510008823C9F0EA89FB89808185FD05C0A88907
:10052000B9898C9186FD0FC00FB607FCF5CF80818D
:1005300085FFF2CFA889B9898C9185FFEDCFCE01D7
:100540000E941502E7CFDF91CF91089580E090E0FF
:10055000892B29F00E940B0281110C940000089550
:100560008130910591F024F4892B01F560E008C0F9
:100570008230910521F00397C9F461E007C061E082
:1005800088E00E94D90060E005C060E088E00E9439
:10059000D90061E08BE00E94D90061E089E00E940F
:1005A000D9000E94690160E089E006C060E088E04F
:1005B0000E94D90060E08BE00C94D90080E090E0CC
:1005C0000E94B00282E090E00E94B00280E090E0E1
:1005D0000E94B00280E090E00C94B00280E090E0D5
:1005E0000E94B00282E090E00E94B00282E090E0BF
:1005F0000E94B00280E090E00E94B00280E090E0B3
:100600000C94B002009769F0FC0101900020E9F71A
:100610003197AF01481B590BBC0183EB91E00C945F
:10062000A00180E090E008958F929F92AF92BF92D8
:100630000F931F93CF93DF93CDB7DEB7A1970FB67C
:10064000F894DEBF0FBECDBF19A2423008F44AE0D5
:100650008E010F5D1F4F842E912CA12CB12CA50172
:1006600094010E943C07E62FB901CA01015011090B
:10067000EA3014F4E05D01C0E95CD801EC93232B6F
:10068000242B252B61F7C8010E940203A1960FB607
:10069000F894DEBF0FBECDBFDF91CF911F910F91B8
:1006A000BF90AF909F908F900895CF93DF934115A7
:1006B000510529F483EB91E00E94370202C00E94A9
:1006C0001403EC0182E191E00E9402038C0F9D1F54
:1006D000DF91CF910895CF92DF92EF92FF920F9327
:1006E0001F93CF93DF93EC011092A9011092A80100
:1006F000C12CD12C76010091A8011091A901C0173D
:10070000D1072CF180E090E00E94B0020E94B50079
:10071000092E000CAA0BBB0B04C0880F991FAA1F3F
:10072000BB1F0A95D2F7C82AD92AEA2AFB2A42E037
:1007300050E0C701B6010E9455038091A801909135
:10074000A90101969093A9018093A801D4CF82E0DA
:1007500090E00E94B0020E94B500092E000CAA0B86
:10076000BB0B880F991FAA1FBB1FC82AD92AEA2AC8
:10077000FB2A82E090E00E94B00280E090E00E94BC
:10078000B00242E050E0C701B6010E94550382E08A
:1007900090E00E94B0020E94B500092E000CAA0B46
:1007A000BB0B880F991FAA1FBB1FC82AD92AEA2A88
:1007B000FB2A82E090E00E94B00280E090E00E947C
:1007C000B00242E050E0C701B6010E945503C701E4
:1007D000B601DF91CF911F910F91FF90EF90DF90C5
:1007E000CF900895CF93DF930E940203EC0182E142
:1007F00091E00E9402038C0F9D1FDF91CF9108951D
:100800000E9464071F920F920FB60F9211242F932C
:100810003F938F939F93AF93BF938091AB01909140
:10082000AC01A091AD01B091AE013091AA0123E0DD
:10083000230F2D3720F40196A11DB11D05C026E818
:10084000230F0296A11DB11D2093AA018093AB0135
:100850009093AC01A093AD01B093AE018091AF0134
:100860009091B001A091B101B091B2010196A11D8A
:10087000B11D8093AF019093B001A093B101B093EB
:10088000B201BF91AF919F918F913F912F910F90A6
:100890000FBE0F901F9018951F920F920FB60F92D8
:1008A00011242F933F934F935F936F937F938F9375
:1008B0009F93AF93BF93EF93FF9383EB91E00E94DD
:1008C0001502FF91EF91BF91AF919F918F917F9111
:1008D0006F915F914F913F912F910F900FBE0F90AD
:1008E0001F9018951F920F920FB60F9211242F93FD
:1008F0008F939F93EF93FF93E091C301F091C40115
:100900008081E091C901F091CA0182FD12C09081FD
:100910008091CC018F5F8F732091CD01821751F0B0
:10092000E091CC01F0E0ED54FE4F958F8093CC0127
:1009300001C08081FF91EF919F918F912F910F9036
:100940000FBE0F901F901895789484B5826084BD77
:1009500084B5816084BD85B5826085BD85B58160C3
:1009600085BD80916E00816080936E001092810041
:1009700080918100826080938100809181008160FC
:1009800080938100809180008160809380008091BD
:10099000B10084608093B1008091B0008160809349
:1009A000B00080917A00846080937A0080917A0010
:1009B000826080937A0080917A00816080937A00CF
:1009C00080917A00806880937A001092C10061E083
:1009D00088E00E94080160E08AE00E94080161E06E
:1009E0008BE00E94080161E089E00E940801E0912B
:1009F000C301F091C40182E08083E091BF01F091D6
:100A0000C0011082E091C101F091C2018FEC80839E
:100A10001092CB01E091C701F091C80186E080837C
:100A2000E091C501F091C601808180618083E091F1
:100A3000C501F091C601808188608083E091C50185
:100A4000F091C601808180688083E091C501F091BA
:100A5000C60180818F7D80831092A9011092A80128
:100A6000E090A801F090A90185E0E816F10464F493
:100A700082E090E00E94B0028FEFE81AF80AF0924C
:100A8000A901E092A801ECCF85E191E00E94F20378
:100A900087E291E00E94F20388E391E00E94F20372
:100AA0008EE491E00E94F2038DE591E00E94F20352
:100AB00083EB91E00E94FF01181619060CF0ACC1FF
:100AC00083EB91E00E94DD01813309F4C6C024F577
:100AD000803309F0A1C10E94EE0280E090E00E9404
:100AE000B00281E090E00E94B00281E090E00E94BC
:100AF000B00280E090E00E94B00282E090E00E94AC
:100B0000B00282E090E00E94B0020E94DE021092E9
:100B1000A9011092A80120C1823609F450C0843680
:100B200009F07AC10E94EE0281E090E00E94B002DA
:100B300080E090E00E94B00280E090E00E94B0026D
:100B400080E090E00E94B00282E090E00E94B0025B
:100B500082E090E00E94B00280E090E00E94B0024B
:100B600082E090E00E94B00280E090E00E94B0023B
:100B700080E090E00E94B00280E290E00E946B036F
:100B80006B017C018DE691E00E94F20342E050E0AF
:100B900063E570EA80E990E50E94550389E791E0FA
:100BA0000E94F20342E050E0C701B6010E945503E3
:100BB00040E150E0C701B6010E9455032DC189E80C
:100BC00091E00E94F2030E94EE0280E090E00E9419
:100BD000B00281E090E00E94B00280E090E00E94CC
:100BE000B00280E090E00E94B00282E090E00E94BB
:100BF000B00282E090E00E94B0020E94DE0280E03B
:100C000090E00E94B00280E090E00E94B00280E09C
:100C100090E00E94B00281E090E00E946B036B01C3
:100C2000770FEE08FF08F7FE0EC06DE283EB91E050
:100C30000E94370266277727CB016C197D098E0940
:100C40009F094AE003C04AE0C701B6010E941403AD
:100C500082E191E00E940203DFC00E94EE0280E088
:100C600090E00E94B00281E090E00E94B00281E03A
:100C700090E00E94B00280E090E00E94B00282E02A
:100C800090E00E94B00282E090E00E94B0020E94D8
:100C9000DE021092A9011092A801E090A801F09044
:100CA000A90183E1E816F10464F480E090E00E9479
:100CB000B0028FEFE81AF80AF092A901E092A801B9
:100CC000ECCF81E090E00E94B00281E090E00E94D1
:100CD000B0021092A9011092A801E090A801F09032
:100CE000A9018CE6E816F10464F480E090E00E942B
:100CF000B0028FEFE81AF80AF092A901E092A80179
:100D0000ECCF81E090E00E94B0021092A901109215
:100D1000A801E090A801F090A90181E1E816F10492
:100D200064F480E090E00E94B0028FEFE81AF80AC5
:100D3000F092A901E092A801ECCF82E090E00E943D
:100D4000B00282E090E00E94B00280E090E00E9459
:100D5000B00288E991E05EC0E090A801F090A9019E
:100D600083E1E816F10464F480E090E00E94B002B0
:100D70008FEFE81AF80AF092A901E092A801ECCFEF
:100D800080E090E00E94B00281E090E00E94B0021A
:100D90001092A9011092A801E090A801F090A90179
:100DA0008CE6E816F10464F480E090E00E94B00262
:100DB0008FEFE81AF80AF092A901E092A801ECCFAF
:100DC00081E090E00E94B0021092A9011092A80167
:100DD000E090A801F090A90181E1E816F10464F423
:100DE00080E090E00E94B0028FEFE81AF80AF092DB
:100DF000A901E092A801ECCF82E090E00E94B0024D
:100E000082E090E00E94B00280E090E00E94B00298
:100E10008FE991E00E94F2030E94A60249CEE3EB23
:100E2000F1E01382128288EE93E0A0E0B0E08483C8
:100E30009583A683B78384E091E09183808385ECDA
:100E400090E09587848784EC90E09787868780EC94
:100E500090E0918B808B81EC90E0938B828B82EC85
:100E600090E0958B848B86EC90E0978B868B118E2F
:100E7000128E138E148E0895A1E21A2EAA1BBB1B8C
:100E8000FD010DC0AA1FBB1FEE1FFF1FA217B30756
:100E9000E407F50720F0A21BB30BE40BF50B661F6C
:100EA000771F881F991F1A9469F760957095809530
:100EB00090959B01AC01BD01CF010895EE0FFF1F7E
:100EC0000590F491E02D099481E090E0F8940C9461
:060ED0006907F894FFCF52
:100ED600000000003702A001CE018402FF01DD01FF
:100EE600F1010D0A0063686F6F7365206120636FFF
:100EF6006D6D616E643A00643A207072696E74209A
:100F0600696420636F646500623A207072696E746A
:100F160020627574746F6E20737461746500313A63
:100F2600207475726E206F6E206C656400303A20F6
:100F36007475726E206F6666206C656400737570DA
:100F46006F736520746F3A200061637475616C205D
:100F5600726573756C743A2000627574746F6E20D6
:100F660073746174653A20004C4544204F4E004C22
:080F76004544204F46460000EF
:00000001FF
