:100000000C9462000C948A000C948A000C948A0070
:100010000C948A000C948A000C948A000C948A0038
:100020000C948A000C948A000C948A000C948A0028
:100030000C948A000C948A000C948A000C948A0018
:100040000C94D2030C948A000C9442040C941C046B
:100050000C948A000C948A000C948A000C948A00F8
:100060000C948A000C948A000000000024002700F1
:100070002A0000000000250028002B0000000000DE
:1000800023002600290004040404040404040202DA
:100090000202020203030303030301020408102007
:1000A0004080010204081020010204081020000012
:1000B0000008000201000003040700000000000027
:1000C0000000660611241FBECFEFD8E0DEBFCDBF13
:1000D00011E0A0E0B1E0E4E8FDE002C005900D927F
:1000E000A631B107D9F721E0A6E1B1E001C01D9228
:1000F000AE3BB207E1F710E0C2E6D0E004C02197C2
:10010000FE010E94B506C136D107C9F70E947404EA
:100110000C94C0060C940000833081F028F48130E8
:1001200099F08230A1F008958730A9F08830B9F0B5
:100130008430D1F4809180008F7D03C08091800055
:100140008F7780938000089584B58F7702C084B53F
:100150008F7D84BD08958091B0008F7703C080911A
:10016000B0008F7D8093B0000895CF93DF93E9EBCB
:10017000F0E08491E5EAF0E0D491E1E9F0E0C491A7
:10018000CC2391F081110E948C00EC2FF0E0EE0F57
:10019000FF1FE458FF4FA591B491EC91ED2381E04E
:1001A00090E021F480E002C080E090E0DF91CF9108
:1001B00008951F93CF93DF93282F30E0F901E25584
:1001C000FF4F8491F901E656FF4FD491F901EA57A8
:1001D000FF4FC491CC23C1F0162F81110E948C00D7
:1001E000EC2FF0E0EE0FFF1FEE58FF4FA591B491FA
:1001F0009FB7F894111104C08C91D095D82302C0F8
:10020000EC91DE2BDC939FBFDF91CF911F9108957E
:10021000CF93DF9390E0FC01E656FF4F2491FC0161
:10022000EA57FF4F8491882361F190E0880F991F6E
:10023000FC01E859FF4FC591D491FC01EE58FF4FE6
:10024000A591B491611109C09FB7F8948881209558
:1002500082238883EC912E230BC0623061F49FB718
:10026000F8948881322F309583238883EC912E2B4C
:100270002C939FBF06C08FB7F894E8812E2B28835C
:100280008FBFDF91CF9108953FB7F89480911D0102
:1002900090911E01A0911F01B091200126B5A89B4D
:1002A00005C02F3F19F00196A11DB11D3FBFBA2F08
:1002B000A92F982F8827820F911DA11DB11DBC0168
:1002C000CD0142E0660F771F881F991F4A95D1F72D
:1002D00008958F929F92AF92BF92CF92DF92EF924A
:1002E000FF920E9444014B015C0184E1C82ED12C95
:1002F000E12CF12C0E944401DC01CB018819990901
:10030000AA09BB09883E9340A105B10598F321E0F5
:10031000C21AD108E108F10888EE880E83E0981E21
:10032000A11CB11CC114D104E104F10419F7FF9020
:10033000EF90DF90CF90BF90AF909F908F900895F7
:10034000CF92DF92EF92FF920F931F93CF93DF93A1
:100350006C017A018B01C0E0D0E0CE15DF0581F0A1
:10036000D8016D918D01D601ED91FC910190F08144
:10037000E02DC6010995892B11F02196EECF7E0163
:10038000C701DF91CF911F910F91FF90EF90DF9008
:10039000CF900895089580E090E00895FC01538D7A
:1003A000448D252F30E0842F90E0821B930B54174F
:1003B00010F0CF96089501970895FC01918D828DDC
:1003C000981761F0828DDF01A80FB11D5D968C91A9
:1003D000928D9F5F9F73928F90E008958FEF9FEFB4
:1003E0000895FC01918D828D981731F0828DE80F70
:1003F000F11D858D90E008958FEF9FEF0895FC012A
:10040000918D228D892F90E0805C9F4F821B9109F6
:100410008F739927089581E291E00E94FF0121E006
:10042000892B09F420E0822F0895FC01848DDF01DF
:10043000A80FB11DA35ABF4F2C91848D90E0019657
:100440008F739927848FA689B7892C93A089B18946
:100450008C91837080648C93938D848D981306C0E7
:100460000288F389E02D80818F7D80830895EF924B
:10047000FF920F931F93CF93DF93EC0181E0888F5E
:100480009B8D8C8D981305C0E889F989808185FD45
:1004900026C0F62E0B8D10E00F5F1F4F0F73112734
:1004A000E02E8C8DE8120CC00FB607FCFACFE8895D
:1004B000F989808185FFF5CFCE010E941502F1CF29
:1004C0008B8DFE01E80FF11DE35AFF4FF0829FB7BD
:1004D000F8940B8FEA89FB89808180620AC09FB7FC
:1004E000F894EE89FF896083E889F98980818370B7
:1004F000806480839FBF81E090E0DF91CF911F9166
:100500000F91FF90EF900895CF93DF93EC01888DCA
:100510008823C9F0EA89FB89808185FD05C0A88907
:10052000B9898C9186FD0FC00FB607FCF5CF80818D
:1005300085FFF2CFA889B9898C9185FFEDCFCE01D7
:100540000E941502E7CFDF91CF91089580E090E0FF
:10055000892B29F00E940B0281110C940000089550
:100560008130910591F024F4892B01F560E008C0F9
:100570008230910521F00397C9F461E007C061E082
:1005800088E00E94D90060E005C060E088E00E9439
:10059000D90061E08AE00E94D90061E089E00E9410
:1005A000D9000E94690160E089E006C060E088E04F
:1005B0000E94D90060E08AE00C94D90080E090E0CD
:1005C0000E94B00282E090E00E94B00282E090E0DF
:1005D0000E94B00280E090E00E94B00280E090E0D3
:1005E0000C94B00280E090E00E94B00282E090E0C3
:1005F0000E94B00280E090E00E94B00280E090E0B3
:100600000C94B002CF93DF93109217011092160151
:10061000C0911601D0911701C530D10554F482E084
:1006200090E00E94B0022196D0931701C09316016A
:10063000EFCFDF91CF910895CF92DF92EF92FF92AB
:100640000F931F93CF93DF9310921701109216010F
:10065000C0E0D0E001976C010091160110911701E4
:100660007801EE0CFF1C0C151D05A4F480E090E051
:100670000E94B0020E94B50002C0880F991FEA9440
:10068000E2F7C80FD91F0F5F1F4F10931701009398
:100690001601E2CF82E090E00E94B0020E94B50015
:1006A00002C0880F991FEA94E2F7C80FD91F109271
:1006B00017011092160100911601109117010430D4
:1006C00011055CF482E090E00E94B0020F5F1F4FC2
:1006D0001093170100931601EECFCE01DF91CF9159
:1006E0001F910F91FF90EF90DF90CF9008958F9220
:1006F0009F92AF92BF920F931F93CF93DF93CDB78B
:10070000DEB7A1970FB6F894DEBF0FBECDBF19A21A
:10071000423008F44AE08E010F5D1F4F842E912C69
:10072000A12CB12CA50194010E949306E62FB901DA
:10073000CA0101501109EA3014F4E05D01C0E95C1E
:10074000D801EC93232B242B252B61F701151105E0
:1007500071F0F80101900020E9F73197AF01401BDB
:10076000510BB80181E291E00E94A00102C080E03B
:1007700090E0A1960FB6F894DEBF0FBECDBFDF911B
:10078000CF911F910F91BF90AF909F908F90089540
:1007900042E050E062E171E081E291E00C94A0015E
:1007A0000E94BB061F920F920FB60F9211242F9337
:1007B0003F938F939F93AF93BF9380911901909133
:1007C0001A01A0911B01B0911C013091180123E086
:1007D000230F2D3720F40196A11DB11D05C026E879
:1007E000230F0296A11DB11D2093180180931901BA
:1007F00090931A01A0931B01B0931C0180911D01DD
:1008000090911E01A0911F01B09120010196A11DA0
:10081000B11D80931D0190931E01A0931F01B09301
:100820002001BF91AF919F918F913F912F910F9098
:100830000FBE0F901F9018951F920F920FB60F9238
:1008400011242F933F934F935F936F937F938F93D5
:100850009F93AF93BF93EF93FF9381E291E00E9448
:100860001502FF91EF91BF91AF919F918F917F9171
:100870006F915F914F913F912F910F900FBE0F900D
:100880001F9018951F920F920FB60F9211242F935D
:100890008F939F93EF93FF93E0913101F091320199
:1008A0008081E0913701F091380182FD12C0908182
:1008B00080913A018F5F8F7320913B01821751F035
:1008C000E0913A01F0E0EF5DFE4F958F80933A01A1
:1008D00001C08081FF91EF919F918F912F910F9097
:1008E0000FBE0F901F901895789484B5826084BDD8
:1008F00084B5816084BD85B5826085BD85B5816024
:1009000085BD80916E00816080936E0010928100A1
:10091000809181008260809381008091810081605C
:10092000809381008091800081608093800080911D
:10093000B10084608093B1008091B00081608093A9
:10094000B00080917A00846080937A0080917A0070
:10095000826080937A0080917A00816080937A002F
:1009600080917A00806880937A001092C10061E0E3
:1009700088E00E94080160E08BE00E94080161E0CD
:100980008AE00E94080161E089E00E940801E0918C
:100990003101F091320182E08083E0912D01F091EC
:1009A0002E011082E0912F01F09130018FEC8083B5
:1009B00010923901E0913501F091360186E0808393
:1009C000E0913301F0913401808180618083E09176
:1009D0003301F0913401808188608083E09133019C
:1009E000F0913401808180688083E0913301F0913F
:1009F000340180818F7D808381E291E00E94FF013C
:100A0000181619060CF05FC181E291E00E94DD0129
:100A1000813009F490C01CF5811155C10E94020378
:100A20000E94DE0280E090E00E94B00281E090E04F
:100A30000E94B00281E090E00E94B00280E090E06D
:100A40000E94B00282E090E00E94B0020E94020385
:100A50000E94F2021092170110921601E3C0823632
:100A6000F9F0843609F02FC10E94020380E090E083
:100A70000E94B00282E090E00E94B00280E090E02C
:100A80000E94B00280E090E00E94B00280E290E01C
:100A90000E941C03BC01990F880B990B40E146C0D2
:100AA0000E9402030E94DE0280E090E00E94B002F9
:100AB00081E090E00E94B00280E090E00E94B002ED
:100AC00080E090E00E94B00282E090E00E94B002DC
:100AD0000E9402030E94F20280E090E00E94B002B5
:100AE00080E090E00E94B00280E090E00E94B002BE
:100AF00081E090E00E941C036C010E9402030D2C17
:100B0000000CEE08FF08F7FE0EC06DE281E291E0F6
:100B10000E94370266277727CB016C197D098E0961
:100B20009F094AE003C04AE0C701B6010E9477036B
:100B30000E94C803C8C00E9402030E94DE0280E037
:100B400090E00E94B00281E090E00E94B00281E05B
:100B500090E00E94B00280E090E00E94B00282E04B
:100B600090E00E94B0020E9402030E94F2021092E2
:100B7000170110921601E0901601F090170183E121
:100B8000E816F10464F480E090E00E94B0028FEF78
:100B9000E81AF80AF0921701E0921601ECCF81E012
:100BA00090E00E94B00281E090E00E94B0021092BA
:100BB000170110921601E0901601F09017018CE6D3
:100BC000E816F10464F480E090E00E94B0028FEF38
:100BD000E81AF80AF0921701E0921601ECCF81E0D2
:100BE00090E00E94B0021092170110921601E0905E
:100BF0001601F090170181E1E816F10464F480E039
:100C000090E00E94B0028FEFE81AF80AF092170104
:100C1000E0921601ECCF82E090E00E94B0020E94C8
:100C2000020351C0E0901601F090170183E1E8162D
:100C3000F10464F480E090E00E94B0028FEFE81AC3
:100C4000F80AF0921701E0921601ECCF80E090E0F4
:100C50000E94B00281E090E00E94B0021092170161
:100C600010921601E0901601F09017018CE6E8163C
:100C7000F10464F480E090E00E94B0028FEFE81A83
:100C8000F80AF0921701E0921601ECCF81E090E0B3
:100C90000E94B0021092170110921601E090160106
:100CA000F090170181E1E816F1040CF0B4CF80E078
:100CB00090E00E94B0028FEFE81AF80AF092170154
:100CC000E0921601EBCF0E94A60296CEE1E2F1E09F
:100CD0001382128288EE93E0A0E0B0E084839583D3
:100CE000A683B78384E091E09183808385EC90E0D4
:100CF0009587848784EC90E09787868780EC90E0E6
:100D0000918B808B81EC90E0938B828B82EC90E0D6
:100D1000958B848B86EC90E0978B868B118E128E50
:100D2000138E148E0895A1E21A2EAA1BBB1BFD017F
:100D30000DC0AA1FBB1FEE1FFF1FA217B307E407BA
:100D4000F50720F0A21BB30BE40BF50B661F771F12
:100D5000881F991F1A9469F76095709580959095F2
:100D60009B01AC01BD01CF010895EE0FFF1F05905F
:100D7000F491E02D099481E090E0F8940C94C00681
:040D8000F894FFCF15
:100D8400000000003702A001CE018402FF01DD0152
:060D9400F1010D0A000050
:00000001FF
